{
  "_format": "hh-sol-artifact-1",
  "contractName": "Certification",
  "sourceName": "contracts/Main.sol",
  "abi": [
    {
      "inputs": [],
      "stateMutability": "nonpayable",
      "type": "constructor"
    },
    {
      "anonymous": false,
      "inputs": [
        {
          "indexed": false,
          "internalType": "bytes32",
          "name": "_certificateId",
          "type": "bytes32"
        }
      ],
      "name": "certificateGenerated",
      "type": "event"
    },
    {
      "inputs": [
        {
          "internalType": "string",
          "name": "_id",
          "type": "string"
        },
        {
          "internalType": "string",
          "name": "_candidate_name",
          "type": "string"
        },
        {
          "internalType": "string",
          "name": "_org_name",
          "type": "string"
        },
        {
          "internalType": "string",
          "name": "_course_name",
          "type": "string"
        },
        {
          "internalType": "uint256",
          "name": "_expiration_year",
          "type": "uint256"
        }
      ],
      "name": "generateCertificate",
      "outputs": [],
      "stateMutability": "nonpayable",
      "type": "function"
    },
    {
      "inputs": [
        {
          "internalType": "string",
          "name": "_id",
          "type": "string"
        }
      ],
      "name": "getData",
      "outputs": [
        {
          "internalType": "string",
          "name": "",
          "type": "string"
        },
        {
          "internalType": "string",
          "name": "",
          "type": "string"
        },
        {
          "internalType": "string",
          "name": "",
          "type": "string"
        },
        {
          "internalType": "uint256",
          "name": "",
          "type": "uint256"
        }
      ],
      "stateMutability": "view",
      "type": "function"
    }
  ],
  "bytecode": "0x608060405234801561001057600080fd5b50336000806101000a81548173ffffffffffffffffffffffffffffffffffffffff021916908373ffffffffffffffffffffffffffffffffffffffff160217905550610c6b806100606000396000f3fe608060405234801561001057600080fd5b50600436106100365760003560e01c8063ae55c8881461003b578063bc12f6eb1461006e575b600080fd5b61005560048036038101906100509190610723565b61008a565b604051610065949392919061080d565b60405180910390f35b61008860048036038101906100839190610893565b6102ec565b005b606080606060008061009b866104fc565b90506000600160008381526020019081526020016000206040518060800160405290816000820180546100cd906109ad565b80601f01602080910402602001604051908101604052809291908181526020018280546100f9906109ad565b80156101465780601f1061011b57610100808354040283529160200191610146565b820191906000526020600020905b81548152906001019060200180831161012957829003601f168201915b5050505050815260200160018201805461015f906109ad565b80601f016020809104026020016040519081016040528092919081815260200182805461018b906109ad565b80156101d85780601f106101ad576101008083540402835291602001916101d8565b820191906000526020600020905b8154815290600101906020018083116101bb57829003601f168201915b505050505081526020016002820180546101f1906109ad565b80601f016020809104026020016040519081016040528092919081815260200182805461021d906109ad565b801561026a5780601f1061023f5761010080835404028352916020019161026a565b820191906000526020600020905b81548152906001019060200180831161024d57829003601f168201915b5050505050815260200160038201548152505090506000816060015114156102c7576040517f08c379a00000000000000000000000000000000000000000000000000000000081526004016102be90610a2b565b60405180910390fd5b8060000151816020015182604001518360600151955095509550955050509193509193565b60008054906101000a900473ffffffffffffffffffffffffffffffffffffffff1673ffffffffffffffffffffffffffffffffffffffff163373ffffffffffffffffffffffffffffffffffffffff161461037a576040517f08c379a000000000000000000000000000000000000000000000000000000000815260040161037190610abd565b60405180910390fd5b6000610385866104fc565b905060006001600083815260200190815260200160002060030154146103e0576040517f08c379a00000000000000000000000000000000000000000000000000000000081526004016103d790610b4f565b60405180910390fd5b6107e7821015610425576040517f08c379a000000000000000000000000000000000000000000000000000000000815260040161041c90610be1565b60405180910390fd5b604051806080016040528086815260200185815260200184815260200183815250600160008381526020019081526020016000206000820151816000019080519060200190610475929190610526565b506020820151816001019080519060200190610492929190610526565b5060408201518160020190805190602001906104af929190610526565b50606082015181600301559050507ff54e0f0055ffae318a21890316ed523f8a60aa59aaa279dfdcae7176155ec0db816040516104ec9190610c1a565b60405180910390a1505050505050565b600080829050600081511415610518576000801b915050610521565b60208301519150505b919050565b828054610532906109ad565b90600052602060002090601f016020900481019282610554576000855561059b565b82601f1061056d57805160ff191683800117855561059b565b8280016001018555821561059b579182015b8281111561059a57825182559160200191906001019061057f565b5b5090506105a891906105ac565b5090565b5b808211156105c55760008160009055506001016105ad565b5090565b6000604051905090565b600080fd5b600080fd5b600080fd5b600080fd5b6000601f19601f8301169050919050565b7f4e487b7100000000000000000000000000000000000000000000000000000000600052604160045260246000fd5b610630826105e7565b810181811067ffffffffffffffff8211171561064f5761064e6105f8565b5b80604052505050565b60006106626105c9565b905061066e8282610627565b919050565b600067ffffffffffffffff82111561068e5761068d6105f8565b5b610697826105e7565b9050602081019050919050565b82818337600083830152505050565b60006106c66106c184610673565b610658565b9050828152602081018484840111156106e2576106e16105e2565b5b6106ed8482856106a4565b509392505050565b600082601f83011261070a576107096105dd565b5b813561071a8482602086016106b3565b91505092915050565b600060208284031215610739576107386105d3565b5b600082013567ffffffffffffffff811115610757576107566105d8565b5b610763848285016106f5565b91505092915050565b600081519050919050565b600082825260208201905092915050565b60005b838110156107a657808201518184015260208101905061078b565b838111156107b5576000848401525b50505050565b60006107c68261076c565b6107d08185610777565b93506107e0818560208601610788565b6107e9816105e7565b840191505092915050565b6000819050919050565b610807816107f4565b82525050565b6000608082019050818103600083015261082781876107bb565b9050818103602083015261083b81866107bb565b9050818103604083015261084f81856107bb565b905061085e60608301846107fe565b95945050505050565b610870816107f4565b811461087b57600080fd5b50565b60008135905061088d81610867565b92915050565b600080600080600060a086880312156108af576108ae6105d3565b5b600086013567ffffffffffffffff8111156108cd576108cc6105d8565b5b6108d9888289016106f5565b955050602086013567ffffffffffffffff8111156108fa576108f96105d8565b5b610906888289016106f5565b945050604086013567ffffffffffffffff811115610927576109266105d8565b5b610933888289016106f5565b935050606086013567ffffffffffffffff811115610954576109536105d8565b5b610960888289016106f5565b92505060806109718882890161087e565b9150509295509295909350565b7f4e487b7100000000000000000000000000000000000000000000000000000000600052602260045260246000fd5b600060028204905060018216806109c557607f821691505b602082108114156109d9576109d861097e565b5b50919050565b7f4e6f206461746120657869737473000000000000000000000000000000000000600082015250565b6000610a15600e83610777565b9150610a20826109df565b602082019050919050565b60006020820190508181036000830152610a4481610a08565b9050919050565b7f4f6e6c79204973737565722063616e2063616c6c20746869732066756e63746960008201527f6f6e2e0000000000000000000000000000000000000000000000000000000000602082015250565b6000610aa7602383610777565b9150610ab282610a4b565b604082019050919050565b60006020820190508181036000830152610ad681610a9a565b9050919050565b7f4365727469666963617465207769746820676976656e20696420616c7265616460008201527f7920657869737473000000000000000000000000000000000000000000000000602082015250565b6000610b39602883610777565b9150610b4482610add565b604082019050919050565b60006020820190508181036000830152610b6881610b2c565b9050919050565b7f5468652065787069727920796561722073686f756c642062652032303233206f60008201527f6e77617264732000000000000000000000000000000000000000000000000000602082015250565b6000610bcb602783610777565b9150610bd682610b6f565b604082019050919050565b60006020820190508181036000830152610bfa81610bbe565b9050919050565b6000819050919050565b610c1481610c01565b82525050565b6000602082019050610c2f6000830184610c0b565b9291505056fea2646970667358221220fc95b4d0554ade606e3b21cea6a705351206f7ec649c25dfe936d7e222e1144a64736f6c63430008090033",
  "linkReferences": {},
  "deployedLinkReferences": {}
}